:020000040001F9
:10800000983F0020558101006F81010071810100BE
:108010000000000000000000000000000000000060
:10802000000000000000000000000000738101005B
:108030000000000000000000758101007781010050
:1080400079810100798101001DDE01004DD101001F
:1080500079D101000000000025AB01004189010039
:108060007981010079810100798101007981010024
:108070007981010079810100798101007981010014
:108080007981010061CA01007981010079810100D3
:1080900089D10100DDD10100F5D101007981010014
:1080A00079810100798101000000000000000000DA
:1080B00000000000000000000000000000000000C0
:1080C0000348854600F0FEFB004800476564020057
:1080D000983F0020401E00BF00BF00BF00BF00BF90
:1080E00000BF00BF00BF00BF00BF00BF00BFF1D195
:1080F00070470000401E00BF00BF00BF00BF00BFB0
:1081000000BF00BF00BF00BF00BF00BF00BFF1D174
:1081100070470000401E00BF00BF00BF00BF00BF8F
:1081200000BF00BF00BF00BF00BF00BF00BFF1D154
:1081300070470000401E00BF00BF00BF00BF00BF6F
:1081400000BF00BF00BF00BF00BF00BF00BFF1D134
:10815000704700000321094802680A43026008488A
:1081600002680A4302600748804707480047FEE765
:10817000FEE7FEE7FEE7FEE7FEE70000240500401D
:1081800054050040D9D50100C180010030B50B462F
:10819000014600202022012409E00D46D5409D42E1
:1081A00005D31D469540491B254695404019154667
:1081B000521E002DF1DC30BD70B50024254600288C
:1081C00001DA01244042002901DA01254942FFF782
:1081D000DDFFAC4200D04042002C00D0494270BDCF
:1081E00010B5431A934209D28318881803E0401E41
:1081F00001785B1E1970521EF9D210BD03460B4365
:108200009B0703D009E008C9121F08C0042AFAD24C
:1082100003E00B780370401C491C521EF9D210BDBC
:10822000D2B201E00270401C491EFBD2704700220E
:10823000F6E710B513460A4604461946FFF7F0FF65
:10824000204610BD421C0178401C0029FBD1801A39
:10825000704710B5002200E0521C835C8C5CA34286
:1082600001D1002BF8D1D8B2E1B2401A10BD30B51F
:1082700004460020034600E05B1C934203D2E05C0E
:10828000CD5C401BF8D030BD30B50546002003461C
:1082900000E05B1C934205D2EC5CC85C201A01D163
:1082A000002CF6D130BD0321001D401E03781202C0
:1082B0001A43491EF9D5104670470000F0B507462D
:1082C0000846584087B0C00F049048000E46590039
:1082D00040084908BC1A884105D2384631461E4636
:1082E00017460B4602465800400810434CD0300D4C
:1082F000039040055900400D490D0590401A029029
:10830000402872DA18030121000B09050843019087
:1083100004980092002805D001995242002088411B
:1083200000920190029840210A1A0199009800F0E9
:10833000E5F905460C466B4607CB00F000FAC0197C
:108340007141039A0E0D0023D71756401A467A4002
:10835000164344D0049A002A2DD0029A012A039A87
:1083600015DC1205C01A914101263605001C714129
:10837000D20F059ED2070093019202962A46234609
:1083800000F0FDF907B0F0BD38463146FAE71605B2
:10839000224A0F46B218C01AB74101210905001C34
:1083A0004F4100187F41114618187941E20F1043E0
:1083B0006D19644113E0E2076D0815436408C207B4
:1083C0001443039A01261205C01A91413605001C78
:1083D0007141CE07400830434908C01851412A4630
:1083E000234600F0BFF9CDE7FFE7049801224000E3
:1083F000C117121A00238B4104983146C417381A4A
:10840000A141EEE730B40124E407634030BC55E7F6
:1084100030B40124E407614030BC4FE70000E0FFC6
:10842000F0B51FB488B00B99099800244840099909
:10843000C00F490049080991C0070B9900904900F5
:1084400049080B9109990898A64608431CD00B9936
:108450000A98084318D0099801244000420D4800AA
:10846000410D099824050003000B204309900B9847
:108470000003000B20430B9050181C4940180022A9
:1084800001901446104605E0002001460DB0F0BDF5
:10849000032801DA034600E003239C46C11A0AAE12
:1084A0000AE05F0008ADED5B4F00F75B7D430027FE
:1084B000AA187C41491C5B1E6145F2DD410004ABFA
:1084C0005A522104120C0A43240C401C0828DFDBFA
:1084D000019802900099704601910090059B049AC2
:1084E0000799069800F04BF9D0E700000DFCFFFF5C
:1084F000F0B50C465C4085B0E40FE40703944C00F3
:108500000026640859009446490802460296224310
:1085100021D062460A431ED06200570D4A000E0366
:108520002303550D012402462C492405781B1B0BFF
:10853000360B401823432643614600901C46501AD0
:10854000B44103D30098401C009002E092180098B8
:108550005B41002803DA0020014605B0F0BD002091
:10856000012109050746864611E064461D46141B95
:10857000B54106D36546521BB341744607430C43CD
:10858000A646CD0740084908284392185B41054696
:108590000D43EAD11046184313D0604619465040A7
:1085A0007140084306D06046101AB34106D201223A
:1085B000002306E000220123DB0702E00122D24370
:1085C0005310009874460105381C6141029C039DBC
:1085D0000019694100F0C6F8BFE70000FD03000084
:1085E00070B54B005B0803430BD04B005C0D0026BD
:1085F00033466542B341D417AD1AA34102DB0020D4
:10860000014670BD12053018514170BD0EB5C2173C
:10861000C10F5040CA0740180021054B0293019238
:1086200000910A460B4600F0AAF803B000BD000016
:10863000330400000EB505490291002100910A465D
:108640000B46019100F09BF803B000BD330400001D
:1086500070B5CD0F4A0009030123090B1B0519430F
:108660000B4BED070024520D9A4201DA002070BD39
:10867000074B34339A4203DC9A1A00F04FF802E0B9
:108680000449511888402C43F1D0404270BD00008D
:10869000FF030000CDFBFFFF4A0009030123090B84
:1086A0001B051943094B10B5520D9A4201DA0020FF
:1086B00010BD064B34339A4203DC9A1A00F02EF8B0
:1086C00010BD03495118884010BD0000FF03000091
:1086D000CDFBFFFF10B5002904DB0124E407404275
:1086E0008C412146002B04DB1C460123DB07524250
:1086F000A3418B4200D1824210BD000010B5202A58
:1087000004DB0146203A9140002010BD9140202317
:108710009C1A0346E3401943904010BD10B5202A2F
:1087200004DB0846203AD040002110BD0B46D34060
:10873000D0402024A21A91400843194610BD10B51C
:10874000202A06DBCB170846203A1041C1170B43FD
:1087500006E00B461341D0402024A21A9140084362
:10876000194610BD10B5002B08DA0024401C6141E9
:1087700092185B411A4301D14008400010BDF0B58A
:108780001FB482B005460C0003D0084606F07CF802
:1087900002E006F079F82030024600902146284693
:1087A000FFF7ACFF049B059A04460F46184311439C
:1087B000084314D0184610431BD0009840210A1AD1
:1087C00018460599FFF7AAFF05460E46009A059937
:1087D0000498FFF793FF084305D0012004E02046EA
:1087E000394607B0F0BD0020C11705430E432C43A6
:1087F000374300990E986305401A7905E40A002270
:108800000C43FD0A0A3002D500200146E9E70105C4
:10881000101969410C9C0D9D00196941FFF7A2FFD9
:10882000DFE7FEB500231A461B1A8A4103DB00204E
:10883000014603B0F0BD4A000D0301212D0B0905CF
:10884000520D0D43D10702D100186D41521E511037
:10885000FF31FF310131002704463E46384600977C
:1088600001910246012100200905FFF757FFC319B6
:108870007141F818324684468E464A416146284680
:10888000611A904104D36046241A954176461F46EA
:10889000241900986D41401C00903428E1DDF9193D
:1088A00030467041091BA84103D20022D24313462F
:1088B00001E00022134601980105381C7141FFF7C1
:1088C00051FFB6E7064C0125064E05E0E36807CCEC
:1088D0002B430C3C98471034B442F7D3FFF7F4FB1A
:1088E00038DC020058DC020070B58C180578401C9A
:1088F0006B075B0F01D10378401C2A1106D1027867
:10890000401C03E006780E70401C491C5B1EF9D128
:108910002B0705D40023521E0DD40B70491CFAE717
:108920000378401CCB1A921C03E01D780D70491C83
:108930005B1C521EF9D5A142D8D3002070BD0000A7
:10894000044802680021002A03D001220160024885
:10895000426070470071004000700040F0B50E4664
:1089600001468DB0FF310746E531154668460C914A
:1089700000F05EF91C46103C2AD4314608A800F0ED
:1089800057F908A80FC8079304AB07C304A93846D2
:1089900000F066F800990498103C484000BA28603E
:1089A000019905981036484000BA68600299069807
:1089B000484000BAA86003990798484000BAE860A8
:1089C00008A80FC803936B4607C31035002CD4DAF0
:1089D00008A90C9800F02CF90DB0F0BDF0B50546D3
:1089E00000881435800032E02C681A4B1A4E610062
:1089F00031402246E609DF091A403E40921B174EDD
:108A0000FF43324051400E464A001E403A40F709AB
:108A1000F61B124F3E40724017461F400E4B560049
:108A20001E40FB09FB1A0D4F3B405E400B46744055
:108A30005340734061401826F14159406240102371
:108A4000DA414A400821CC41544010C5401E042858
:108A5000CADCF0BD80808080FEFEFEFE1B1B1B1B5F
:108A6000F0B50E4695B00188079109010F18042052
:108A700014378100891980393F1FCA6F3B685A40FB
:108A8000CA67401EF5D18FE00423481E1090D81C01
:108A90008007000F3058010E47484068425C991C1F
:108AA0008907090F71580902090E415C0491591C8C
:108AB0008907090F715A0904090E455C9907090FC6
:108AC000715C445C1099059888424FDA049910460D
:108AD0004840039000F030F9049906906940084638
:108AE000119100F029F904902846604000F024F923
:108AF00008902046504000F01FF913900499069802
:108B0000484000F019F90B9004990898484000F08B
:108B100013F90B990A90484000F00EF98446119918
:108B20000B98614041406046414006986A40414090
:108B30000A9862404240604642400498424003988E
:108B400044400B9844406046444008984440039891
:108B500045400A9845406046454013984540080600
:108B60001104084321020843284306E00499100633
:108B7000090408432902084320439A000CA951180C
:108B80008039C8675B1E82D104200CAA81008B1833
:108B9000803B3F1FDB6F3C68891963408039CB679E
:108BA000401EF3D10598401C07990590884200DAD1
:108BB0006AE715B0F0BD000000200020F0B5C1B09C
:108BC00003F0F8FB194BC11DF93103C30022012149
:108BD0006C46FF27CE091C37A1544D007E437540DB
:108BE0006940521CFF2AF4D9632500230570FF2732
:108BF000F91A615C0A020A43110956097140960983
:108C00007140D60971405140E25C69405B1C81545F
:108C1000FF2BEDD3054900200A684968135CC8544E
:108C2000401CFF28FAD941B0F0BD00000020002010
:108C30000A6812BA02604A6812BA42608A6812BAB6
:108C40008260C96809BAC16070470000FEB5054678
:108C50000C463748FF2100901E46F5312846FFF7A5
:108C6000E6FA002E11D0012E61D10E202880214677
:108C70002846082610311430FFF7DAFF2146281D58
:108C8000FFF7D6FF6E80374644E00A20288004268E
:108C9000F4E7B80001902C5831463846FFF78CFABB
:108CA000002918D12348E2B20068825C1302220432
:108CB000120E825C12041A4323021B0EC35C1B06B5
:108CC0001343220E805C009A184312781406444025
:108CD0000098401C0090082E13D1042911D115488A
:108CE00022040068120EE1B2825C415C12020A4367
:108CF0002102090E415C09041143220E805C040626
:108D00000C43B81B8000401941680198614040192C
:108D10007F1C416028888000001DB842B9DC00201B
:108D2000FF350146E135401C29711028FBDBFEBDF3
:108D3000B08802000020002001064000002901DA6E
:108D40001B214840C0B270471FB51D491D4863DF55
:108D5000002803D01CA221490BF03FFC194801ACAC
:108D60001030A11C63DF002804D01C4916A2C91CC6
:108D70000BF033FC1348A11C203063DF002804D023
:108D80000D2111A289010BF028FC0E48A11C3030E6
:108D900063DF002804D011490BA209310BF01DFC40
:108DA0000F4802900F48039002A90F480BF092FD64
:108DB000002804D0094904A211310BF00EFC1FBD9C
:108DC0000A200020BC8802002E2E5C736F7572632F
:108DD000655C616E63732E63000000003A0300005F
:108DE0005D6902003948020000290020F8B500F052
:108DF00035FA002832D01F4DE87F00282ED00128F8
:108E00002DD002282AD11C4C607B012826D1A073CA
:108E10001A48807803F0C6F8207B0D273F031028FE
:108E200004D3384601F047FD00202073C0B2401C37
:108E3000C0B2207300020F4EC719FF3F2C36013F0E
:108E400080223146384601F0B1FC3846802280301D
:108E5000B11801F0ABFC00206073E877F8BD07485B
:108E60002038416A006A0BF07FFD0028F6D102200D
:108E7000F3E70000E0280020002A0020282000203E
:108E8000002800DA4042704710B500231A4606E079
:108E9000C40701D05B1CDBB24008521CD2B28A422C
:108EA000F6D3184610BD10B50DF0EEFB10BD10B591
:108EB000FFF7ACFB0FF04EF8FFF7CAFB10BD000048
:108EC0000648817A022907D0C17C142902D8807C07
:108ED000782801D90020704701207047082600201B
:108EE00007498A7A022A09D00A46A83A127E002A3D
:108EF00004D18A7C782A01D8101888747047000041
:108F00000826002004498A7A022A04D0CA7C142A3E
:108F100001D81018C87470470826002010B502F058
:108F200013FA002810D102F01DFA00280CD100F02D
:108F300033F80D49002802D00020C88204E0C88A16
:108F4000FF212D31884201D2002010BD00F007F929
:108F500000F084F9002802D0072000F039F901F070
:108F60006DFE012010BD000000260020094800B55C
:108F7000002201468273C0318A81CA8200F00CF857
:108F8000002804D002208874CA768A7600BD8A74CC
:108F900000BD00004025002004480069800CC00787
:108FA000C00F01D00020704701207047000500501D
:108FB00000B5FFF7F1FF002803D10448807B132898
:108FC00001D9002000BD012000BD00004025002087
:108FD000F8B5164C00F0F0FB0146E07A002813D0FB
:108FE000012814D0022812D10D4608F06DF9207422
:108FF000617C26460027C83E00290FD0677402F026
:10900000A3F9002804D005E0204605F019FEF8BDBC
:10901000207C06E0A07A022805D005E0B17B8842DA
:1090200002D2B073F6E72560E772F8BD082600208B
:1090300010B501F0C7FE10200DF000FB0349C881F8
:10904000012048760220C87410BD000000260020D0
:1090500000B50246FFF7A0FF002808D00449888920
:10906000801880B2034A8881904200D98A8100BD6D
:1090700000260020302A000010B51F4B002286B0C9
:1090800000282FD016292DD14178E1290BD0E229D3
:1090900004D0E32904D0E42904D023E0012202E033
:1090A000022200E00322142469460C820024D1002D
:1090B000009401940294C91803948A8B69460A802B
:1090C00001228A708C8004A9801C02910390988AE6
:1090D0006946A6DF08494031002806D0074A904279
:1090E00000D10C77002006B010BD087F012801D9FF
:1090F000401E08770120F6E7902800200430000089
:1091000070B5FEB015460E460446FFF757FD002326
:109110001A4621466846FFF799FD6846FFF75EFC50
:1091200040232A4631466846FFF718FC7EB070BDE2
:1091300030B50C468DB01546014610226846FFF743
:109140004FF81022214604A8FFF74AF868464DDF81
:109150001022284608A9FFF743F80DB030BD70472C
:1091600010B5097815291DD002DC112921D11EE086
:10917000212904D0222908D023291AD10AE010007D
:1091800017D039210CA2090109E0100011D00AA260
:109190000E4904E010000CD00C4907A2C91C0BF0CA
:1091A0001CFA06E00520C00301F076FE01E001F0A4
:1091B00085FE002010BD00002E2E5C736F7572635B
:1091C000655C62746C652E63000000009303000010
:1091D00010B5074C1321A08A76DF002803D005A222
:1091E000D6210BF0FAF902204034607710BD000060
:1091F000902800202E2E5C736F757263655C62741C
:109200006C652E630000000070B50646FFF7C4FED3
:1092100000250C4C002809D1FFF7CAFE002805D014
:1092200002F092F8002801D0657770BD002E01D0C1
:10923000A57701E00120A07701F0DAFD0520607735
:1092400070BD0000D02800201CB50446684666DFCB
:1092500068468088207001201CBD00000348407FC4
:10926000042801D00020704701207047D02800203A
:109270000348407F002801D000207047012070473C
:10928000D028002070B52D4A0346008811460025DD
:10929000403117281AD01ADC012824D0102827D0F2
:1092A000112813D1681E908201201446487709F0D6
:1092B00023FE00F047F802F0D9FEA07D800705D418
:1092C00003F00AF8002801D004F07CF970BD1928D9
:1092D00024D0392803D050281CD05528F6D1052099
:1092E000FFF776FF70BD087F1A7A8018087770BD87
:1092F00098889082042014460E46487700F05CFA65
:109300002060F57700F058FA0D49086020465C307F
:1093100062DF70BD184609F083F970BD98790028A6
:10932000FBD1487F0528F8D1887F022803D0002090
:10933000FFF76AFF70BD4D7770BD000090280020D8
:109340004025002005480021017641768181C181B8
:109350000348017A4906490E01727047902800209F
:109360004025002038B51E4C09F0C6FD20465C3073
:1093700062DF0121684681701F21C94301802246B6
:10938000123269460120A0DF002827D101211548AB
:109390000BF038FB13480221401C0BF033FB114843
:1093A0000321801C0BF02EFB0E480421C01C0BF087
:1093B00029FB0C480521001D0BF024FB0948062160
:1093C000401D0BF01FFB07480721801D0BF01AFB07
:1093D00004480821C01D0BF015FB002038BD00001B
:1093E00090280020E1FF000010B5104804464034EA
:1093F000617F0B0005F05FFA050F040F0F120F00DD
:10940000C08A002801D006F05FFCA07F002803D0AE
:109410000020FFF7F9FE10BD0120FAE701F094FFEC
:109420000028F8D000F004F810BD000090280020BB
:1094300070B500F0C1F905463A4C02F04DFF002826
:1094400007D0394920684018A84268D204F0BAF819
:1094500065E0A07E0A2802D901F0EEFD5FE0334905
:1094600020684018A8420FD2FFF76CFF01F0E4FD1E
:109470002F48007A022803D0032801D0042808D1FD
:109480000620FFF7A5FE04E0A089002801D100F026
:109490005FF82848007A000641D5E089A189884212
:1094A00005D20120C00300F07DFB00280DD1607EB5
:1094B000217E884225D2208A01263603FF2806D83D
:1094C000304600F0A5FA002801D0012070BD607E72
:1094D000401CC0B26076217E88420DD200202082DE
:1094E0000122052114A001F087F8A060002808D00F
:1094F000304600F08DFAE8E7012205210EA001F0C8
:109500007BF87D216068C9004018A84207D201F0AD
:1095100093FD00F035FA6560A07E401CA076002027
:1095200070BD00009028002030750000204E000023
:10953000602D00204025002065706F6368000000EA
:109540000248007F002800D001207047D02800206A
:1095500070B50D4D0120C002A8810024EC810521C9
:109560000AA000F06BFE0006000E28766C7606D08E
:109570000022052105A001F03FF8A8602C820548D3
:109580000472447270BD00009028002065706F6303
:109590006800000000270020F0B59BB006460F468B
:1095A0003022374902A8FEF71BFE35493022303100
:1095B0000EA8FEF715FE334C0525E8000019B8216A
:1095C000BC2203460958125880335A64196480300B
:1095D000DA6899686D1E19612D0642612D0EECD175
:1095E00020468030476106616038417A002909D001
:1095F00000214172C02006518034304639466764EC
:109600001BB0F0BD002000900EAE0190E8000119E3
:109610009022525880314B69311803C9FEF700FF80
:10962000019B009AFEF74AFE6D1CEDB2019100907D
:10963000062DEBD300252E460127F8000119C02284
:10964000525880314B6C02A9091803C9FEF7E8FE95
:109650002A463346FEF732FE7F1CFFB205460E4611
:10966000062FEAD3019B009AFEF7D2FEC0221051CA
:1096700080346164FEF7ECFF00B2FEF7C7FFBFE77E
:10968000188B0200402C0020164830B501460122FC
:1096900020310A724A720021CA0012180023136393
:1096A000536313661546536680352B616B618032B8
:1096B000491C2B64C9B253640629EDD301463022FC
:1096C000E0310A744A740346074A80330021DA679E
:1096D0009967803306C30A46FF30034901301A6098
:1096E000C16030BD402C00200000F03FF0B59BB0C1
:1096F00006460F4630222E4902A8FEF771FD2C497E
:10970000302230310EA8FEF76BFD2A4C0525E8000B
:109710000019C26D816D42660166C26A816A6D1E62
:1097200042632D0601632D0EF1D120466763203080
:109730002663017A002907D000210172676630464E
:10974000394626661BB0F0BD002000900EAE019099
:10975000E80001194B6B0A6B311803C9FEF760FE74
:10976000019B009AFEF7AAFD6D1CEDB201910090DD
:10977000062DEDD300252E460127F80001194B6E6A
:109780000A6E02A9091803C9FEF74AFE2A463346A3
:10979000FEF794FD7F1CFFB205460E46062FECD364
:1097A000019B009AFEF734FE61662066CAE700005E
:1097B000B88A0200402C002010B503F031FD10BD26
:1097C00070B5214A01781346A03B090219804478FC
:1097D0001E4D091989B200241980A9420DD11460C7
:1097E00054608178C01C9970002903D0012903D1ED
:1097F0000AF0DEFC00F072F870BD144D6D1CA94239
:109800000FD114605460C178090259600279114384
:109810000902596042791143596081799970002297
:109820000DE00A4A921C914202D0521C9142E3D1AF
:10983000C1780A0201791143427909020A43811D64
:1098400018460AF089F870BDC4270020E5FF000023
:10985000F8B520480090051D80792F46401CA8705F
:10986000FF20E870E2202871A8786871803707200F
:1098700078620020A871E871072129722E46A0366F
:10988000F8617073B8622C4630700B22193402559F
:1098900001216A702970009801700F48827F0A5573
:1098A000C27F03213173022002550B49E01C0422C0
:1098B0001431FEF795FC072030732846102221460C
:1098C0000930FEF78DFC10207073F86100980221BA
:1098D0000170F8BD4826002060280020F8B5154E1C
:1098E00010213446FF340D34A0782746401CA07068
:1098F000FF20B1308151FF20E070E1202071A037BE
:109900002546012219353A73002149553146681C14
:1099100009220831261FFEF763FC0A223A73002051
:10992000607001202070022030702946601DFEF713
:1099300057FCF8BD4025002070B5104B102218468A
:10994000FF300D308178FF24491C8170FF21B13137
:10995000CA50FF21C170E1210171B9340122E254E2
:109960000146002618251931755445700270031FF1
:1099700002241C70401DFEF733FC70BD4025002002
:1099800070B5204C2546FF35C5352879FF34CF34D6
:10999000002835D1FF202070E12060701620A070D3
:1099A00018488030416A090EE170416A090C217142
:1099B000818C090A6171808C1249A0710A6C486C13
:1099C0008018020EE271020C2272020A6272A07208
:1099D0000D48028C1212E272008C2073C86C0009D0
:1099E000020A6273A073886C0009010AE173207493
:1099F0000648407D607403F0EFFEA07401202871DA
:109A000070BD000040250020402D0020402C00208B
:109A1000F0B593B0064601A8009005A80B9001A8E8
:109A20000A905E4C05A80D902079002802D160793B
:109A3000002802D0012013B0F0BD0D225848920139
:109A4000851803221202A17980180E90002923D0D4
:109A500000271CE0288C00010C90B0421AD20E980E
:109A60000422816D0C98081801A900F081FE01986C
:109A700004224000400801900E98816D0C9808184F
:109A800001A900F0CFFE288C401C28847F1C20896F
:109A9000B842DFD80020A071288C0701B74201D35B
:109AA0000020C8E70120208116E00E981022806D6A
:109AB0000099C01900F05CFE00980078FF2806D0DD
:109AC0000198002803DA40004008019006E0288C45
:109AD000401C80B228840701B742E6D3B7424CD27B
:109AE000288C050146E00E981022806D0B994019D4
:109AF00000F03EFE0B980078FF283ED00598002825
:109B00003BDA4000400801990590884235D90D980C
:109B1000017A0A98007A81422FD10D98417A0A98E9
:109B2000407A814229D10D98817A0A98807A8142BF
:109B300023D10D98C17A0A98C07A81421DD10D981F
:109B4000017B0A98007B814217D10D98C1880A9841
:109B5000C088814211D10D98417B0A98407B814297
:109B60000BD10D98817B0A98807B814205D1208999
:109B7000401C20811035B542B5D32389012B01D972
:109B8000092201E00023082220460A300A9906F043
:109B9000F7FF0120207160714CE7000004270020CE
:109BA00040250020F0B591B0064668460C9004A808
:109BB0000B90684609905B4C04A80D902079002812
:109BC00008D16079002805D1FFF7F6FD216814312E
:109BD000814202D9012011B0F0BDA079524D002878
:109BE0001ED0002717E0E88B0001B04216D20422F5
:109BF0001303C01869460A9000F072FD0098042211
:109C000040004008009069460A9800F0CFFDE88BBC
:109C1000401CE8837F1C2089B842E4D80020A07152
:109C2000E88B0701B74201D30020D4E7012020814F
:109C300015E01022900238180C9900F051FD0C9894
:109C40000078FF2806D00098002803DA400040087A
:109C5000009006E0E88B401C80B2E8830701B74221
:109C6000E7D3B7424BD2E88B050145E010229002C2
:109C700028180B9900F034FD0B980078FF283ED08F
:109C8000049800283BDA400040080099049088427C
:109C900035D90D98017A0998007A81422FD10D9813
:109CA000417A0998407A814229D10D98817A0998A0
:109CB000807A814223D10D98C17A0998C07A814275
:109CC0001DD10D98017B0998007B814217D10D9819
:109CD000C1880998C088814211D10D98417B0998AB
:109CE000407B81420BD10D98817B0998807B81421A
:109CF00005D12089401C20811035B542B6D3238977
:109D0000012B01D9092201E00023082220460A3054
:109D1000099906F035FF012020716071FFF74CFDB5
:109D2000206057E7042700208028002010B5002479
:109D300005F092FA002803D0641CE4B2052CF7D396
:109D400010BD0000F0B5044610460022084E0AE09F
:109D50002578070A7D406D00755B00024540521C66
:109D6000A8B292B2641C8A42F2D35840F0BD0000FF
:109D7000A88B020010B50C4609F034FE04480179A6
:109D800002464900303254520121417110BD000099
:109D9000F42100200348132100888903C001081A18
:109DA00070470000F421002070470000F8B52B4AEE
:109DB0002B4E9078134685011446D1781B88303499
:109DC00010E04F00E75BB7420BD126484E00A0538E
:109DD00068185B1C1380491CD170012180B251713D
:109DE000F8BD491C4029ECD31321C9018B4233D063
:109DF0001A494979002903D01849303100F0FEFC96
:109E00000027164C25E0A078884225D2401C134933
:109E1000C0B24035A070ADB2303100F08FFC0F48B9
:109E2000002130304A00825AB2420ED10B4A0D480E
:109E30004B003032D05222886818521C2280491CB4
:109E4000E170012180B26171F8BD491C4029E9D35C
:109E50007F1CE168B942D6D80020F8BDF42100206B
:109E6000FF7F0000FF3F000010B509F0BBFD034875
:109E70000249007940003031085A10BDF421002019
:109E8000F0B5194CA1B0A18BA069FEF77FF90025B0
:109E9000264620803036154F17E06946284600F0E8
:109EA0004DFC1148802269463030FEF799F90020B8
:109EB0004100715AB94202D02188491C2180401CBE
:109EC00080B24028F4D36D1CADB2E068A842E4D85B
:109ED00000250549A5703031284600F02FFCE570BB
:109EE000657121B0F0BD0000F4210020FF7F00006B
:109EF00070B5C0B0344C6946002000F009FC8020E9
:109F000020816D4620A9032000F002FC3FA802300A
:109F100001F0EAF92D49002688424CD12846363016
:109F200001F0E7F92A490002884244D102A803302F
:109F300001F0DAF9218988423DD105A8023001F00B
:109F4000D3F9E0606846007CA077012833D16846E9
:109F5000407BA08304A8013001F0C6F9208404A846
:109F6000033001F0C1F9608403A8023001F0BCF9AC
:109F7000A084012021890004FEF708F90546608CC1
:109F8000A84218D3A18B401BFEF700F9E084022001
:109F9000A071A561A08C2061208C00280CD06808DD
:109FA0006061E08C21894000401E0818FEF7EEF841
:109FB000E168884202D9002040B070BD0020C04353
:109FC000A062A6850120F7E7F421002055AA000031
:109FD0000046415410B530210248FEF728F900F040
:109FE00003F810BDF4210020F0B5A7B05A4C0220B0
:109FF0006D46A07180212846FEF719F929460120F7
:10A0000000F0EDFB2946022000F0E9FB80262681C6
:10A0100066810120A0831320C00160840427F00022
:10A02000A784208441100F20C001E0841E20E0603E
:10A030000120A0772761A16100026061F0228021E8
:10A0400028462592FEF7F3F80B2244A12846FEF796
:10A05000C7F86946CE720020087301224A738F73D5
:10A06000C8730A7448748F74CE7409220A75259ACD
:10A070004A753F220A764876FF228A76C8760877A4
:10A0800048778877C8770CF02DF808A9C871020ABC
:10A090000A72020C4A72000E8872A089694688759D
:10A0A000000AC87508A90E71292088712846132254
:10A0B0002DA12B30FEF794F82946002000F08FFBED
:10A0C00021892846FEF7B3F8552018A98877AA20D9
:10A0D000C8772946032000F082FB00207F262490C9
:10A0E00035E0FF2280212846FEF79AF801202E5401
:10A0F000801C8028FBD3FF212598C9430143297088
:10A100001E4A010A11436970010C12121143A97011
:10A11000000EFF210843E8702946002000F06EFB86
:10A1200001270EE0FF2280212846FEF779F8012062
:10A130002E54801C8028FBD32946384600F05EFB55
:10A140007F1CE068B842EDD82498401C2490A17F81
:10A150008142C6D827B0F0BDF4210020EBFE904D1F
:10A1600053444F53352E30004E4F204E414D452025
:10A17000202020464154202020202000FFFFFF0007
:10A1800010B505484179002904D003498078303161
:10A1900000F034FB10BD0000F4210020F1B50026D2
:10A1A000A8B0354600F0AEF802F0FEFB07460021ED
:10A1B0002898002F016001D0002415E0002029B06C
:10A1C000F0BD20A9204602F0A9FB00280AD0761C89
:10A1D000B6B26946204602F0B5FB6846FEF732F893
:10A1E00045190835641CA4B2BC42EAD3289805601E
:10A1F0003046E4E770B5A8B0064600F083F802F0F8
:10A20000D3FB050018D0002414E020A9204602F05A
:10A2100085FB00280CD06946204602F093FB3146AE
:10A220006846FEF716F8002802D1204602F058FBD7
:10A23000641CA4B2AC42E8D328B070BDF3B5A9B099
:10A24000299800260F46002824D0002F22D000F0A5
:10A2500059F802F0A9FB05001CD001A800240090C9
:10A2600016E0A0B221A902F059FB00280FD0A0B23D
:10A2700001A902F067FB002006E000990A5C299919
:10A28000095C8A4203D1401CB842F6D3761C641C98
:10A29000AC42E6D330462BB0F0BD000010B5040050
:10A2A0002DD0E07C00282AD1A07C002802D02046B6
:10A2B0000AF094F8E08902F053FBE2890146104667
:10A2C00002F0A0FB218AE08902F084FB0C48008E9A
:10A2D00002040B482030817C11430A02C17CE089D2
:10A2E000114302F083FBE089216802F0BFFAFFF717
:10A2F00047FF02F093FB0020207502F03BFB10BDEE
:10A30000C025002010B50548007D002805D0034871
:10A31000FFF7C4FF002002F013F810BDA4220020B4
:10A32000002803D00068002800D0012070470000FA
:10A33000F0B5CDB00D4624A9019104A900910146C4
:10A34000802204A8FDF74CFFFFF7DCFF324C00260B
:10A35000E574012D26D0FFF793FDFFF71BFD0521C6
:10A36000C90288424CD3FFF721FD050048D0FFF712
:10A370001DFD69460881020044D02946009802F07C
:10A3800081FA411C40D0711E2182A6742081694649
:10A3900009896181A1812660E081012020751E4824
:10A3A0004DB0F0BD02F000FB070029D0002510E001
:10A3B000A8B244A902F0B2FA002809D0A8B20199C3
:10A3C00002F0C0FA00990198FDF743FF002802D07F
:10A3D0006D1CBD42ECD3BD4212D2A8B2E08103AAEB
:10A3E00002A902F0E7FA8020A074E0892081684683
:10A3F00000896081A0810398206060602675CEE7A7
:10A400000020CDE7284604E02846FFF7CDFC68464B
:10A410000089FFF7C9FCF3E7A4220020F8B516462F
:10A420000F46050007D02868B04200D2C6B2A87C0B
:10A43000802802D004E00020F8BD284608F064FD22
:10A44000A87C1C498219802A09D241183246384614
:10A45000FDF7C6FEA87C34468019A8741EE0802251
:10A46000121AD4B2411822463846FDF7B9FE3819FF
:10A4700000901BE0301BC7B2802F00D380273A46E4
:10A480000C490098FDF7ACFEE019C4B20098C01961
:10A490000090802F0AD0AF74B442EBD32868A0425A
:10A4A00000D2C4B2001B28602046F8BD284608F040
:10A4B0002BFDF1E73C230020F8B516460F460500BA
:10A4C00014D02A8A3146384602F01AFF2882A87C26
:10A4D0001F498219802A0BD2401832463946FDF7AF
:10A4E0007FFEA87C34468019A87427E00020F8BDC0
:10A4F0008022121AD4B2401822463946FDF770FE67
:10A50000381900908020A874284609F067FF0028B9
:10A5100012D113E0301BC7B2802F00D380273A46F8
:10A520000B480099FDF75CFEE019C4B20098C01911
:10A530000090802F04D0AF74B442EBD32046F8BD16
:10A540008020A874284609F049FF0028F4D1F5E7D7
:10A55000BC220020F7B5A8B00E460024FFF7D2FEBB
:10A5600002F022FA0746002542E06946284602F03A
:10A57000D5F900283AD02898844235D1019808AFFF
:10A58000010E2A98315401982A9C000C641C305505
:10A590000198641C000A3055641C019830556846C7
:10A5A0000089641C000A305568460089641C3055D7
:10A5B00039462846641C02F0C5F93846FDF742FECC
:10A5C000401C85B27F20001B80B2854200D9054621
:10A5D000002078553555641C30192A463946FDF758
:10A5E000FFFD60192BB0F0BD641CA4B26D1CADB2B0
:10A5F000BD42BAD32A98F5E7F7B5AAB0002000907B
:10A6000001200F460190FFF77DFE02F0CDF9050015
:10A6100024D002AE00241FE0A0B222A902F07EF9ED
:10A62000002818D0A0B202A902F08CF9002005E0A1
:10A630002A99325C095C8A420DD1401CB842F7D39A
:10A640002C9800280DD0019800280AD0A0B202F062
:10A6500047F900200190641CAC42DDD300982DB076
:10A66000F0BD01213046FFF763FE002805D0818947
:10A670000122C901120489180091FFF70FFEEDE7CE
:10A6800070B5A8B00646FFF73DFE02F08DF9050053
:10A6900014D0002410E0A0B220A902F03FF9002855
:10A6A00009D0A0B2694602F04DF931466846FDF77F
:10A6B000D0FD002805D0641CAC42ECD3002028B0AB
:10A6C00070BD0120FBE7000010B518210348FDF71D
:10A6D000AEFDFFF7D5FB02F0B1F910BDA4220020BA
:10A6E00070B50D460446C1091646042000F0BCF8BA
:10A6F000002807D01320800320183246294601F095
:10A7000051F970BDFF2280212846FDF789FD70BDFB
:10A7100070B504460D462146002000F0A5F800283B
:10A7200005D0E0018022294601F03CF970BDFF22EE
:10A7300080212846FDF774FD70BD000070B5044609
:10A740000D462146012000F08FF8002808D0074868
:10A750008022006929460019C00101F023F970BD6B
:10A76000FF2280212846FDF75BFD70BDF42100200B
:10A7700010B501F017F910BD70B504460D4621461D
:10A78000022000F071F8002808D0074880224069B4
:10A7900029460019C00101F005F970BDFF22802192
:10A7A0002846FDF73DFD70BDF421002070B50E4632
:10A7B0000446C109A0B01546042000F055F8002851
:10A7C0000BD02A4631466846FDF70AFD1320800368
:10A7D00020182A46694601F002F920B070BD70B514
:10A7E00004460D462146002000F03EF8002804D023
:10A7F000E0018022294601F0F2F870BD70B50446F0
:10A800000D462146012000F02FF8002807D004480B
:10A810008022006929460019C00101F0E0F870BDEE
:10A82000F421002030B5A1B0054614466846FDF776
:10A83000D7FC22466946284601F0D1F821B030BD48
:10A8400070B504460D462146022000F00DF80028A0
:10A8500007D004488022406929460019C00101F050
:10A86000BEF870BDF421002010B5030004F023F8F9
:10A870000504070A0D10210004290DD219E0FC2956
:10A880000AD216E0FF2907D813E00F20C00101E02B
:10A890000120400281420CD300F056FD002801D077
:10A8A000002000E0012000F00EF802F06DFE002014
:10A8B00010BD012010BD1321890310B540180321DC
:10A8C00001F077F810BD70B5054600F014F80446A5
:10A8D000284600F003F8001980B270BD014610B59B
:10A8E0000020002906D0132110248903204604F0FB
:10A8F00055FD204610BD10B54C240021204604F023
:10A900004DFD204610BD000070B504460D462146A1
:10A910000320FFF7A9FF002808D00748802280699C
:10A9200029460019C00101F03DF870BDFF228021C9
:10A930002846FDF775FC70BDF421002070B5044673
:10A940000D4621460320FFF78FFF002807D004485B
:10A950008022806929460019C00101F040F870BDCD
:10A96000F4210020FFB58DB0002408940E98FDF767
:10A9700069FCC0B20A900E9809900F9800260B90BF
:10A98000374635460998FDF75DFCC0B210E00999DD
:10A99000495D20395E2903D8761C6D1CF6B2EDB2F4
:10A9A0000999495DC90903D07F1CED1CFFB2EDB2C6
:10A9B0008542ECD30B98102807D0082809D0002531
:10A9C00002A9002004AE099196E0F0003901401878
:10A9D00000E0F000C5B2F3E70E990B5C1946203990
:10A9E0005E294AD80F98102802D0082828D01DE0E8
:10A9F0004A481B011818FF38FF3810216A460238F0
:10AA000001F022F91098012814D0E10008980822DA
:10AA1000000109180D98081807466946FDF7E0FB84
:10AA20003846803008220999FDF7DAFB641CE4B24D
:10AA300008985EE08020401B4010E1004118E5E7E7
:10AA400017208003DB001818FF3808216A460138F8
:10AA500001F0FAF81098012806D006200D996043FD
:10AA6000401806226946DFE78020401B411006207F
:10AA7000604309180D980818F3E7D90940D00E99DA
:10AA8000274F081820218C4619070B0C4178807835
:10AA90008906090D80061943800E0843010A0B46FA
:10AAA0004E3B6A46C0B2522B01D3602100200902FE
:10AAB000081840012721C0198903401A614601F096
:10AAC000C3F81098012820D0E10008981022000156
:10AAD00009180D98081807466946FDF781FB3846A6
:10AAE000803010223146FDF77BFB0898401CC0B235
:10AAF00008904100401800190A99884200D26BE77B
:10AB0000802D08D8284611B0F0BD8020401B401091
:10AB1000E1004118D9E7FF20F5E7000000C3050078
:10AB200000C905000348C16B002901D00021C163A1
:10AB3000704700004061004010B50021132006F06E
:10AB400017FD6420FEF7AFF90121132006F010FD78
:10AB500010BD000010B52F4802240460001D0460E1
:10AB60000121204606F004FD2A480C300460001D37
:10AB70000460001D04600121062006F0F9FC01219B
:10AB8000072006F0F5FC234820300460002109204E
:10AB900006F0EEFC1F4828300460032211460B200B
:10ABA00006F0D8FC1B4830300460001D0460001D16
:10ABB0000460001D046000220221102006F0CAFC7F
:10ABC00014484430046003220021122006F0C2FC25
:10ABD0000121132006F0CCFC03221146152006F0BB
:10ABE000B9FC0121162006F0C3FC0A485C30046061
:10ABF00008486430046007486C300460001D04603D
:10AC0000001D0460001D046000211F2006F0B0FC40
:10AC100010BD00000007005001200449C007486033
:10AC20000321062033DF06202EDF7047006300403B
:10AC300010B500F035FA02F07DFD10BD10B5002111
:10AC4000142006F095FC1E49002088711D49022041
:10AC50000860091D0860091D08601A491031086064
:10AC6000091D0860091D0860091D0860091D0860AC
:10AC7000091D0860091D0860091D0860091D08609C
:10AC8000091D0860091D0860091D0860091D08608C
:10AC9000091D08600B4958310860091D0860091D2D
:10ACA0000860091D0860091D0860091D0860091D6C
:10ACB0000860091D0860091D0860091D086010BDB5
:10ACC000402500200007005010B50121142006F097
:10ACD0004FFC02490120887110BD00004025002072
:10ACE0001CB50449086A496A0090019168460BF056
:10ACF00085FC1CBD1C8A02000149022008607047C7
:10AD00003C07005010B501210F2006F031FC10BDAA
:10AD10001CB5002812D0012810D10949094C086936
:10AD2000496901910090A07C002807D068460BF08B
:10AD3000E9FC0020A0740120FEF7B5F81CBD00005E
:10AD40001C8A0200402500201CB5002811D00128D3
:10AD50000FD10849084C8868C96801910090A07C0F
:10AD6000002806D168460BF0E5FC0120A074FEF730
:10AD70009AF81CBD1C8A02004025002000B587B04F
:10AD8000002819D00D49002203C90490CD20C00429
:10AD900005910290182000901A2001900320694626
:10ADA000087304A80BF0FAFC04A80BF0C3FC0449D8
:10ADB00001208874FEF777F807B000BD1C8A0200F6
:10ADC000402500201CB504498869C969009001919B
:10ADD00068460BF013FC1CBD1C8A020010B500284D
:10ADE00001D0012100E00021092006F0C1FB10BDC7
:10ADF00010B519489AB000681890062430216846AA
:10AE0000FDF715FA6946CC700120088218A9059152
:10AE1000694608831148079030210CA8FDF707FA0E
:10AE2000022008A908740CA9684609F017FD7D24C2
:10AE3000E400002803D02046FEF735F835DF03F0A4
:10AE400083FF074873DF002803D02046FEF72BF866
:10AE500035DF1AB010BD0000448A02003220002005
:10AE60009024002010B50A48C07F012804D0032098
:10AE7000C00300F011F810BDFEF7F0F90028FAD079
:10AE800003485038818C034809F056FF10BD00007C
:10AE9000D0280020A8240020014610B50648002232
:10AEA000006909F05BFC002804D07D20C000FDF79C
:10AEB000FAFF35DF10BD00003020002010B501463C
:10AEC00004220948FDF78CF907480321801F00225E
:10AED0008903C06809F042FC002804D07D20C0002E
:10AEE000FDF7E1FF35DF10BD362000207FB50546B8
:10AEF0000CF050F97D24E400002803D02046FDF733
:10AF0000D2FF35DF002D01D0012000E0002069468E
:10AF1000087303A80AF0A2FD002803D02046FDF71D
:10AF2000C2FF35DF01A805210130FDF780F9694630
:10AF3000487901221043E1210840DF210C3008400C
:10AF400069464871072088711020C8710648009032
:10AF50000A7106480AF0A8FE002803D02046FDF733
:10AF6000A2FF35DF7FBD000061910100302000208D
:10AF700010B5094CFEF720FC20464030C17F002967
:10AF800008D0002181770320FEF722F9E08A022110
:10AF90000843E08210BD00009028002010B5FFF7A4
:10AFA00093FE02F03DFF03F00BFF1E4A00211E48F6
:10AFB00009F054FB7D24E400002803D02046FDF76F
:10AFC00072FF35DF1848194A0021001D09F046FBC1
:10AFD000002803D02046FDF766FF35DFFFF7BAFDF6
:10AFE0000022134910460CF06DFC124901204874F0
:10AFF000FFF7C4FE01F084FA00F0F8FC02F066F9F5
:10B00000FFF70AFE01F02CFFFDF7B0FF02F00EFB88
:10B0100000F0EEF84B20C000FDF745FF02F0E2FB28
:10B0200010BD0000C57502003C20002065AE010087
:10B030001D770200402500207CB5164CFEF7BCFBB6
:10B04000054601F049F900280AD126464036F07F2E
:10B0500000281CD11048114A01688918A94201D959
:10B0600000207CBD0560C82168460180FF21413178
:10B070004180042181804B21C900C18009F042FD3B
:10B08000002804D10120F07720465C3062DF0120E7
:10B090007CBD0000902800204025002010270000E3
:10B0A00070B51B48194C00690025400DC007C00F42
:10B0B00000D001252078A84226D0FEF77DFB064669
:10B0C000A80025700019466002F0F2F820780028E8
:10B0D00018D1E66000F038F9002813D001F080F8AC
:10B0E0000C490120C872FEF767FB0B49886502F026
:10B0F000ABFF002802D000210A2001E00021072038
:10B1000003F060F9012070BD002070BDA02D00206B
:10B1100000050050202C0020C0290020F8B57D201B
:10B120002F4C40010090617820782E4F01262E4D43
:10B13000814219D1002819D100F006F9002812D057
:10B14000FEF73AFB6168009A401A90420BD37D20CB
:10B15000000108186060E07C401CE074AE720920B9
:10B16000E872FEF7E9FBF8BD002814D0A06861463C
:10B17000091A0A29F7D36168401A217C00292AD0CC
:10B18000B84228D200202074607C401C6074AE72EB
:10B190000720E872F8BDFEF70FFB6168401A0A2825
:10B1A000F8D3B84215D3002060702074A07C401CF6
:10B1B000A074AE720820E8720C488079002805D08F
:10B1C000FF210A482D31C030C182F8BD02F0FAF9E2
:10B1D000F8BD2674F8BD667000202074F8BD00002C
:10B1E000A02D0020DC050000802800204025002044
:10B1F00070B50948074D00690024400DC007C00F15
:10B2000000D001246C702C70FEF7D6FAA100491909
:10B21000486070BDA02D002000050050F1B52C4CF9
:10B2200082B02546E035687C2874FF20FF2101307C
:10B23000053100590959274A274BFDF73FF82246A7
:10B240008032D1679067287CFDF7F4F90F460646F7
:10B250000022224BFDF732F802460B4630463946B3
:10B26000FDF746F9E21DF932D160906006460F46BF
:10B27000287C02990090081AFDF7C8F932463B462F
:10B28000FDF7CEF806460F460098FDF7D3F9324693
:10B290003B46FDF713F80022114BFDF70FF8FDF7C1
:10B2A000FBF96874E01DF930C368826800200D491D
:10B2B000FDF7A8F8F822FC2312591B59FDF7B0F846
:10B2C000FF2201321051A4186160687CFEBD0000AD
:10B2D000402C00202D431CEBE2363A3F000070402A
:10B2E0000000E03F0000F03F417800780902084389
:10B2F0007047C1780A02817811430A0241780078C8
:10B30000114309020843704710B5074C0020FFF7AE
:10B31000D2FA01200003FFF7CEFA00202076206049
:10B320006060A06010BD00006828002010B5054CCA
:10B330000C2221460020FFF7D3F90020E07520768B
:10B34000A07510BD6828002004480549008D88427A
:10B3500001D10120704700207047000040280020E4
:10B36000A57F00000148007F704700006028002092
:10B37000F0B585B0FE4CFEF71FFA0546022002F03C
:10B3800017F9FC48217E02460A32039216320192D6
:10B390000D23F94A9B01D318029319235B01D71897
:10B3A00003231B02D618403000900B0003F083FAF1
:10B3B000110A355B7685BDCEFAF9F8F7F6F5F4F3A8
:10B3C000F2F1F500EC48007A810606D5EB4E01203B
:10B3D000756120762020607507E041060FD5E74EA5
:10B3E000052075612076402012E000F0E3FFFF3079
:10B3F000FF300230B0608030F06005B0F0BD8007F3
:10B4000008D5DE4EDE487561B0610D202076022041
:10B410007877EAE700207877EFE701203877B5639F
:10B42000D64EFF203070D348756102F033F8D14812
:10B43000D4491430F06103F013FA0A22CD49B06800
:10B44000FCF7CEFEB06806210A3005F0FDFAB168BF
:10B450002C20887206F048FDB268F0681146FDF7AE
:10B4600067FE0220F9E0C349C44D1931E961102299
:10B47000A86803F0D7F90A220399A868FCF7B0FE80
:10B48000A86806210A3005F0DFFAA9682C20887226
:10B490000A46E868FDF74CFE0320DEE001992C2007
:10B4A0004876B449B54D3A31E9611022A86803F0F5
:10B4B000B9F904202076002047E1022002F016F8B6
:10B4C000002825D003F0FEFD0021AFA0FEF730FFDD
:10B4D00006465A22A749FEF7EFFF3046FEF7DEFE8A
:10B4E000022002F065F80020A44920760D61A24AEE
:10B4F0000870137ADF252B4013728880787F20280C
:10B500008AD10120A075801EE060FEF7A1F974E7E2
:10B510009A498A88501C88807D20C0008242F6D9D2
:10B520000B2020760E20E07567E7012038779248DF
:10B53000B563007A4006EAD50620207600218F48C0
:10B54000FF22817042708180456156E7022001F040
:10B55000CDFF002849D0894E0025B5808FA0FFF788
:10B560008FF8012808D00B20207675700320E07535
:10B57000022002F01DF840E7012188A0FEF7D8FE66
:10B5800005464068622828460DD0FEF787FE042055
:10B5900019E044E136E119E1D9E04BE1B1E06CE0BA
:10B5A0005DE045E02EE062227249FEF737FF284653
:10B5B000FEF774FE019800782C2803D1009840789B
:10B5C0002C2804D00520E0750B202076D0E720221F
:10B5D0006848B16803F0C0F806F086FCB268F0680D
:10B5E0001146FDF78DFD0720EFE764488188491C6F
:10B5F00089B281807D20C000814288D90B202076CD
:10B600000F2090E75D4D1022A9685A480E46FCF7BE
:10B61000E7FD584820223146213003F09DF806F01E
:10B6200063FCAA68E8681146FDF76AFD082014E08B
:10B63000524D1022A96803980E46FCF7D1FD4D48E3
:10B6400020223146423003F087F806F04DFCAA680C
:10B65000E8681146FDF754FD09202076CDE64748FD
:10B66000102281680198FCF7BBFD0A20207602F0C9
:10B67000A9FB012000F036FFBFE614213D4808F089
:10B68000E7FA3C4F2C20387515252020395C2C29F1
:10B6900006D079556D1C401CC0B2EDB22D28F5D3F3
:10B6A0003648C580009801F0F5FE14223148009913
:10B6B000FCF7EAFD0004000C05D03148F0620920D7
:10B6C000E0750B20C9E7002001262C4B6D1EE9B266
:10B6D00098610EE07A5C303A0B2A04D30A21E175B6
:10B6E0000B21217607E0724310180A225643491EA7
:10B6F000C9B21529EED29861207E0B28AED00D205C
:10B70000ABE71E4D00262E706E70022001F0EEFE9B
:10B71000002804D1A8887D21C900884214D90220BC
:10B7200001F046FF14482676017A9D2211400172ED
:10B730002E706E70AE800420A075401FE060FEF792
:10B7400087F803F0BFFC58E6401CA88055E60120AE
:10B7500038770948B5638030406A306307488069AC
:10B76000F06214483085144870850E20207625E05C
:10B7700068280020DC2400204025002044200020F0
:10B78000FFFFFF7F488A02007365637572697479F1
:10B790005F6465766963652E74787400736563759C
:10B7A000726974795F736572766963652E747874F3
:10B7B00000000000A57F0000341200001F49BD22D8
:10B7C000087A1040087202F001FB16E60F2020767E
:10B7D000787F40280ED0022812D00420A075F06A8D
:10B7E000E060FEF735F8FDF7E7FF154948610020F6
:10B7F000387702E60220A075114900204870EEE774
:10B800000320EBE70020FFF756F80C22214600202A
:10B81000FEF7CCFF029810210170B563EDE50949F0
:10B82000B06B4018A8428ED201F0CCFE02990020E5
:10B830000870E2E50B202076112074E640250020F8
:10B84000442000208813000010B5312005F0E0FDF1
:10B850000148407810BD0000FA32002010B53920B0
:10B8600005F0D6FD0148407810BD0000FA320020F6
:10B8700010B54721202007F0EBFE0120FDF713FB58
:10B880000921212007F0E4FE4021222007F0E0FEFC
:10B890000021232007F0DCFE4821242007F0D8FEF9
:10B8A0000821322007F0D4FE0121332007F0D0FE1A
:10B8B000262005F0ADFD2A21302007F0C9FE3120F9
:10B8C00005F0A6FD002010BD10B500F00DF810BD6C
:10B8D00010B52F2005F09CFD02484078C006C00E30
:10B8E00010BD0000FA32002010B5214C607F002806
:10B8F00013D03F21382007F0ABFE30213A2007F06B
:10B90000A7FE10213B2007F0A3FE0A213C2007F0F0
:10B910009FFE20213D2007F09BFE0021322007F0F2
:10B9200097FE0021332007F093FE4721202007F0E7
:10B930008FFE0021212007F08BFE607F002801D0C0
:10B94000842100E00421222007F082FE1821232018
:10B9500007F07EFE4821242007F07AFE99212E2050
:10B9600007F076FE0021252007F072FE002010BDB2
:10B970002026002010B50446282005F0E9FC062208
:10B9800002492046FCF72CFC10BD0000FB320020D1
:10B9900010B50F2005F03CFD0148407810BD0000B7
:10B9A000FA320020134610B50A46194600F04CF949
:10B9B00010BD10B5032905D0022907D0012908D0F0
:10B9C000002909D000F078F8002010BD00F040F800
:10B9D000FAE700F0A5F8F7E700F00CF8F4E71346F3
:10B9E00010B50A46194600F0E5F810BD10B500F094
:10B9F000CBF810BD30B5134D0024287885B0002851
:10BA000002D02C7000F0A4F900F0BAF90E49C7205A
:10BA1000087016200D4900230191049002940394AC
:10BA200001220094084918460CF052FA08F0A6FBCF
:10BA30002878002803D10120287000F0EDF805B027
:10BA400030BD000064200020F0320020FA320020D7
:10BA500070B5164E04463078002586B0002802D016
:10BA6000357000F075F900F08BF911485221017022
:10BA7000210C4170210A8170C47016200D490023E9
:10BA800001910490029503950422009508491846F7
:10BA90000CF01EFA08F072FB3078002803D1012068
:10BAA000307000F0B9F806B070BD000064200020CE
:10BAB000F0320020FA32002070B5164E044630787D
:10BAC000002586B0002802D0357000F041F900F062
:10BAD00057F9114820210170210C4170210A817011
:10BAE000C47016200D49002301910490029503951E
:10BAF00004220095084918460CF0EAF908F03EFBCC
:10BB00003078002803D10120307000F085F806B0AD
:10BB100070BD000064200020F0320020FA320020C6
:10BB200070B5164E04463078002586B0002802D045
:10BB3000357000F00DF900F023F91148D82101709B
:10BB4000210C4170210A8170C47016200D49002318
:10BB50000191049002950395042200950849184626
:10BB60000CF0B6F908F00AFB3078002803D1012068
:10BB7000307000F051F806B070BD00006420002065
:10BB8000F0320020FA3200200EB500F045F80749E7
:10BB900001200870684600F087F869460448097873
:10BBA000C1736946497801740EBD0000642000200D
:10BBB00060250020F7B50F46164E0446C5193078AB
:10BBC0006D1E002803D00020307000F0C1F8200A5C
:10BBD000290A00020902884203D139462046029A06
:10BBE0000DE0FF21201A01310D1AA9B22046029A58
:10BBF00006F0C6FD029A791B6019521989B206F047
:10BC0000BFFD3078002803D10120307000F004F827
:10BC1000FEBD00006420002000B5094985B0B920B0
:10BC2000087000201621074A0192049102900390A7
:10BC300003460090012202490CF04AF905B000BD0C
:10BC4000F0320020FA320020F7B5154D044628786E
:10BC5000002686B00F46002802D02E7000F078F83B
:10BC6000104803210170210C4170210A8170C470B9
:10BC70000898042201AC85C4162100230491009683
:10BC8000084918460CF024F90BF096FE2878002895
:10BC900003D101202870FFF7BFFF09B0F0BD0000FD
:10BCA00064200020F0320020F0B5174D06462878B9
:10BCB000002485B0002802D02C7000F049F8134908
:10BCC000902008704C708C70CC700C714C711620E8
:10BCD00006210F4F00230391049002940122019743
:10BCE00000940A4918460CF0F3F80BF065FE387919
:10BCF0003070787970702878002803D1012028707E
:10BD0000FFF78AFF05B0F0BD64200020F03200206C
:10BD1000FA32002010B50C4886B005210170AA2126
:10BD20004170002016210222084C04910290034623
:10BD300001940392009004490CF0CAF80BF03CFE09
:10BD4000607806B010BD0000F0320020FA3200200A
:10BD500000B5094985B0AB20087000201621074ABC
:10BD6000019204910290039003460090012202493F
:10BD70000CF0AEF805B000BDF0320020FA32002021
:10BD800010B50E480024017886B0002902D0047056
:10BD9000FFF7DEFF0A490620087016200949002334
:10BDA00001910490029403940122009404491846DE
:10BDB0000CF08EF808F0E2F906B010BD6420002007
:10BDC000F0320020FA320020F3B5C7B026A9259141
:10BDD0001E4903AF097B002902D0491E814206DAC1
:10BDE0001BA1489802F03CFDC0B249B0F0BD010271
:10BDF0000D2000030818802239460190FEF770FCE0
:10BE00006946087B4D7B801CC6B28020841BAC42F7
:10BE100005DBB9192A464898FCF7E2F913E00198C6
:10BE2000802280302599FEF75BFC2246B91948989C
:10BE3000FCF7D6F948982A1B20182599FCF7D0F969
:10BE40004898002141552846CFE70000002A0020ED
:10BE50004E6F206D6573736167652100F0B50E4606
:10BE600001461948A1B0007B6D46002805D0002787
:10BE7000FF2909D0401E88421BDA14A1304602F087
:10BE8000EFFCC0B221B0F0BDCF2100020902401882
:10BE900080222946FEF724FC684604787F2C00D3D4
:10BEA0007F242246A91C3046FCF79AF937552046D4
:10BEB000E8E708020D210903401880222946FEF711
:10BEC0000FFC68460478ECE7002A00204E6F206DD6
:10BED000657373616765210070B506460D48CF2113
:10BEE000007BA0B0000209026D464018802229465E
:10BEF000FEF7F6FB684604787F2C00D37F242246A9
:10BF0000A91C3046FCF76CF900203055204620B0C3
:10BF100070BD0000002A00200348017B102901D9D0
:10BF200010210173C8B27047002A002010B50948DB
:10BF3000007F062809D002F087F8002807D10548BD
:10BF40002030C0780A38072801D8012010BD002011
:10BF500010BD0000002C002010B50C4B1D245B18F8
:10BF600064011C19002806D0012809D0022801D13B
:10BF700000F07CF810BDE274084600F013F810BD24
:10BF800000F074F80020E07410BD0000402500208F
:10BF900003480021C176032141770121C177704711
:10BFA000802D002010B508490022CA760122012800
:10BFB00007D04A778877CA770449062002F014FA36
:10BFC00010BD03234B77F5E7802D0020B80B000050
:10BFD00070B5FDF7F1FB244C0546E07F002801D049
:10BFE00001F066F9E27F204E00200221403E13005E
:10BFF00002F061FC060604070D1A2B06E177207794
:10C0000070BD01207565FEF7E9FE032027E0706D25
:10C010006430A842F4D20020FEF7E0FE0420E0776E
:10C020007565E07E401C1DE0706DFF309130A842C8
:10C03000E6D2E07E032806D30520E077207F401C6F
:10C040002077756570BDE17770BD7D23726D1B0132
:10C05000D218AA42F8D2227F637F9A4201D3E077B6
:10C0600070BDE177E07670BD802D002010B50349EA
:10C070000020C877FEF7B2FE10BD0000802D002022
:10C080008307FF22DB0E9A408907090E994000289A
:10C090000BDA0007000F0838830808489B001818BF
:10C0A000C36993430B43C3617047830804489B00F3
:10C0B0001B181868904308431860704700ED00E0B3
:10C0C00000E400E070B5054600242046B030C0B260
:10C0D00007F0D8FA102007F0D5FA002007F0D2FABE
:10C0E0001F200AF025FC2946802007F099FA641CDD
:10C0F000E4B28035042CE8D370BD10B50446AE2000
:10C1000007F0C0FAD52007F0BDFAC12007F0BAFA4F
:10C11000A82007F0B7FA1F2007F0B4FAAD2007F007
:10C12000B1FA002007F0AEFA202007F0ABFA0220A7
:10C1300007F0A8FAD32007F0A5FA002007F0A2FA2A
:10C14000402007F09FFA8D2007F09CFA8D2007F021
:10C1500099FA142007F096FAA02007F093FAC82065
:10C1600007F090FADA2007F08DFA122007F08AFA29
:10C17000204600F019F8D92007F084FA222007F0B1
:10C1800081FADB2007F07EFA002007F07BFAA4207A
:10C1900007F078FAA62007F075FA10BD0149802053
:10C1A000C86070470005005010B50446812007F0B4
:10C1B00069FA204607F066FA10BD10B5002801D0D4
:10C1C000AF2000E0AE2007F05DFA10BD0348062165
:10C1D0000171024900203039C8777047302C0020A7
:10C1E00010B5084CFDF744F8002802D00120FDF7F7
:10C1F0000BF82079002801D0002010BD012020710B
:10C2000010BD0000302C002070B52E4CFDF7D4FA84
:10C2100005462079002801D001F04AF8207901264E
:10C22000030002F048FB083C050D1C213C3D473C47
:10C23000FDF7C2FA206007200AF07AFB02202DE009
:10C240002068281A67282AD91F498020C860022040
:10C25000FCF729FE07200AF06BFB03201EE0CC2030
:10C26000FFF74BFF042019E016483038C677FDF77A
:10C27000A3FA1649164D0865124810384672287CF4
:10C2800004280AD10021052002F09CF80620287419
:10C290001048417D6973807DA8730520207170BDB1
:10C2A0000020FFF78AFFFFF779FFFDF785FA20608E
:10C2B0000720F3E7FDF780FA2168401A6728EED9D6
:10C2C0000020EBE7302C002000050050C0290020A2
:10C2D000802D0020E02500200248007F002800D0AB
:10C2E00001207047202C002010B50BA0FEF7C8F9E4
:10C2F00000280CD00CA0FEF7C3F9012808D00CA030
:10C30000FEF7BEF9012802D00BA0FEF7B9F910BD67
:10C3100007F05CFA10BD00006F74615F73746172A6
:10C32000742E7478740000006170702E62696E0063
:10C3300073642E62696E000063792E62696E00007C
:10C3400010B506490028087707D00548807B5A2891
:10C3500003D90021072002F047F810BD202C00204F
:10C360004025002010B5A521C9000E48FBF75FFF4E
:10C370000C49322048600C49642008860220803134
:10C380000873072080310871084A0021117406499A
:10C3900008228039CA77087702480549803001664B
:10C3A00010BD0000C82D0020083100206832002098
:10C3B000CCCC000000487047C82D00200148C07F49
:10C3C0007047000088300020F7B5414C86B02068E7
:10C3D0004049401C2060C96D0026401AFF21F531FC
:10C3E0003D4F884203D90020387602F045FE384898
:10C3F0003A4908300190009106A80EC802A805F03D
:10C40000EDFC02AB07CB683407C4314D0023743513
:10C41000743C02F0AFFE696800290FD0296869609A
:10C42000401AC0100818286003F06EFB002807D0DF
:10C4300000200226387602F01FFE0AE06860F2E76C
:10C44000234861688030008F884202D9304609B0A5
:10C45000F0BD06F08DF806AB07CB02F093FB1D484C
:10C460009C38014620310EC90EC007F0F5F91C4D6D
:10C4700000280ED006AF07CF012302F0DFFD1548DC
:10C480000121A038017406F01BFF2868401C2860B9
:10C4900004E006AF07CF002302F0D0FD06F012F84B
:10C4A00000280ED00C48A038817F002909D1C07F18
:10C4B0000326002802D06868401C6860012000F054
:10C4C00011F806AD07CDE36F07F064FBBEE700008F
:10C4D000C82D0020482F002028310020928A020019
:10C4E000682000200349002801D0034800E00348E9
:10C4F0008860704768200020C0390600300B0100BA
:10C500003EB5AA2168460170BB210171CC210172A0
:10C51000124C6A46012100200AF044FD012101AAC3
:10C5200008460AF03FFD02AA012102200AF03AFD66
:10C530000AF0A4FCFDF7A8F80020207546206075DD
:10C54000E075FDF739F9606000202A2122182032B9
:10C55000401CC0B211700828F8D33EBD402C00200A
:10C560000C48C17D407D5A2901D25A2811D38842F6
:10C5700007D9421AD2B20A2A0BD35007400F081823
:10C5800006E00A1AD2B2102A03D35007400F081A45
:10C59000C0B27047402C0020F8B5324C324E207D9E
:10C5A0000427B56B002811D0022811D0032816D01B
:10C5B00004280CD101F01EF9002808D020682D1A9B
:10C5C00005F0E4F9022700282CD128E02775F8BDF2
:10C5D00025600320A56020750AF0D6FCF8BD01F0A7
:10C5E00009F9002816D0A56000F062FE207B002823
:10C5F000F4D00020207320682D1A022D01D906F0F6
:10C6000077FA192DEAD905F0C1F90028E6D10AF028
:10C6100035FCDBE7A068281A0228F8D8F8BD307F7F
:10C62000002802D0012DD1D8F8BD10484B21007A46
:10C63000C900022803D0032801D0042801D1B06E1C
:10C64000810A8D42F0D308486038007E0028EBD084
:10C65000FDF7B2F80449064A8039496B89188142CE
:10C66000B4D9F8BD402C0020C0250020602D00204A
:10C670008813000030B50446A1B00320402269466B
:10C680008003FEF72DF80D49FF22CB7B6D46204637
:10C69000002B0ED0834200D8002044002B5D64198B
:10C6A0006478182B05D23C2C03D24B738C7321B0C9
:10C6B00030BD4A738A730020F9E70000802D002006
:10C6C000F0B5A1B06E46FEF73FFE0025204C0028D5
:10C6D00008D020481F4FC079603F002807D0387D20
:10C6E000042804D9A5722572657221B0F0BDE07BE3
:10C6F00000281ED00320402269468003FDF7F0FF8A
:10C70000B97D00208E46797DE37B8C460FE0317841
:10C710007278B61C18290CD23C2A0AD28C4502D158
:10C72000964510D301E08C450DD3401CC0B2834226
:10C73000EDD8A57225726572E07B0028D5D0002067
:10C74000FFF798FFD1E70120A07221726272F3E730
:10C75000802D002040260020F0B50327A1B004461C
:10C76000BF036E463846FEF7A6F820780D4D400808
:10C77000E873202802D92020E87301E0002802D0C5
:10C780000020FFF777FF4022611C3046FBF728FDB1
:10C79000402231463846FEF709F80620287421B0B9
:10C7A000F0BD0000802D0020F8B5FDF705F82C4CF9
:10C7B0000546207C002801D000F07AFD217C284E1F
:10C7C00000270120403E0B0002F075F80705151BFD
:10C7D000293914461400A17A00290BD02149237A63
:10C7E0004A7D9A4206D3897D627A914202D32074AF
:10C7F000E7722773F8BD01207564FEF7EFFA022097
:10C800001BE0706CC830A842F4D20020FEF7E6FAB4
:10C81000032020747564E07A401CE072F8BD716CEE
:10C82000FF319131A942F9D2E17A032905D30420DD
:10C830002074207B401C2073F8BD2074F8BD0A4A88
:10C84000716C8918A942F9D2217B022901D30620F3
:10C85000F3E72074E772F8BDFFF732FF2774F8BDE5
:10C86000802D0020E02500203075000010B50C461A
:10C8700007F0D6F8024801684C600121817210BDB2
:10C880003C240020F8B5154C0E460746E0880121EF
:10C8900089021546884202D30020C043F8BD07F044
:10C8A000BFF8216800200860216848602168C873CB
:10C8B00021688D8121684E81216888772168202038
:10C8C000887321687F20C8770120A07220683946CC
:10C8D0004089FEF733F80620205EF8BD3C24002096
:10C8E00010B50D4CE188814215D307F099F8206806
:10C8F0008089002801D0FDF757FA20684089FDF7AC
:10C9000053FA2068C17F7F2905D13F21C1770120DB
:10C91000A07200F083F810BD3C24002010B50C4636
:10C9200007F07EF806490968C87F7F2801D00020FB
:10C9300010BD20222046FBF753FC012010BD000053
:10C940003C24002010B50C4607F06AF80348214645
:10C9500000684089FDF7D8FF012010BD3C2400206D
:10C9600010B507F05DF802480068C07B10BD0000FC
:10C970003C24002070B500200A4C0126E0800546CA
:10C98000B602284607F04CF82068C07FFF2806D082
:10C99000E0886D1C401CADB2E080B542F1D3E08868
:10C9A00070BD00003C2400200148C0887047000092
:10C9B0003C24002070B514460D4607F031F80448B9
:10C9C00001688989298000684068206070BD000086
:10C9D0003C24002010B50C4607F022F802480168FC
:10C9E0000C810121817210BD3C24002010B50C4641
:10C9F00007F016F8024801680C600121817210BD31
:10CA00003C24002010B50C4607F00AF802480168E3
:10CA1000CC730121817210BD3C24002010B5064C5E
:10CA2000A07A002807D02089214680088039FDF7A8
:10CA300007FF0020A07210BD3C24002010B507495C
:10CA40000020FDF799FE054908468030016000216D
:10CA5000818001818172FFF78DFF10BDBC23002012
:10CA600010B506490020086048608860C860034926
:10CA70004039086048600BF02BFC10BD40110140AC
:10CA800010B5064A0121064807F0E8FD002803D04A
:10CA900004A21D2107F0A1FD002010BD15CD01004D
:10CAA000742000202E2E5C736F757263655C525487
:10CAB000432E630010B5024800F004F8002010BDBA
:10CAC0008F0200007CB5054600201F4C00900190AD
:10CAD000206CA84203D1FCF76FFE60647CBDFCF7BC
:10CAE0006BFE2564FCF768FE6064684607F0AEFDE7
:10CAF00001AAA16A009807F0A3FDE06B0199A26B5F
:10CB00004018218D114E4904490C4118C80B1218C8
:10CB1000C003081AA263E063306807F061FE0022D8
:10CB20002946306807F01AFE002803D008A25A21CF
:10CB300007F053FDE06B2030E0630348283007F036
:10CB400085FDFCF739FE7CBDC02500207420002047
:10CB50002E2E5C736F757263655C5254432E6300B6
:10CB60000A4B10B5084A5943526A074B521A2033F0
:10CB70000C215956E1239B00594309B25218014632
:10CB8000104600F047F810BDC0250020805101007C
:10CB90000A4B10B5084A5943526A074B52182033C2
:10CBA0000C215956E1239B00594309B25218014602
:10CBB000104600F02FF810BDC02500208051010064
:10CBC00030B509493C254A6A20318C7DCB7D6C43C8
:10CBD000E318497DE12424016143C918034B5843FC
:10CBE0004018101A30BD0000C025002080510100FF
:10CBF00010B507490C224B6A20318A56E121890081
:10CC00004A439A180146104600F004F810BD00008F
:10CC1000C0250020F8B50C4606462E49FBF7B6FAAB
:10CC200005462C48E1216843371A2B48208001260D
:10CC3000A670E67009013846FBF7A8FAC0B2E121F8
:10CC4000607109014843381A3C21FBF79FFAA07133
:10CC50003C213846FBF79AFAE1710721E81CFBF703
:10CC600095FA2171FF2300216F335F1E2288900700
:10CC70001DD03846854206D3521C491C2D1AC9B214
:10CC80002280C829F2D32078800712D013490020CF
:10CC90000A5CAA4208D8A278521CA2700A5C401C06
:10CCA000AD1AC0B20C28F3D37019E070F8BD184665
:10CCB000E0E70A4900200C390A5CAA42F4D8A278BD
:10CCC000521CA2700A5C401CAD1AC0B20C28F3D3EF
:10CCD000EAE7000080510100B2070000848B0200E7
:10CCE00010B5FCF769FD0A497D22496C12018918CB
:10CCF000814208D2064880388079002804D001207B
:10CD00000004FFF7DFFE10BD01204004F9E700003A
:10CD1000C0250020FEB501A807F098FC2D4D6A46FD
:10CD2000A96A019807F08CFC00980126C40BE00367
:10CD30000090A96A2F4608180002000AA862264837
:10CD400040370673388A00193882E0B2FCF780F960
:10CD5000E0B2FCF7C5F8A86B0019A863686A00196F
:10CD60006862387D802801D200193875F88AFF2161
:10CD70002D31884201D20019F88216483030FFF771
:10CD800037FF14482030817D827B914210D006709D
:10CD90008173014660314A78002A09D0427DCB7800
:10CDA0009A4205D30B799A4202D28A78521E8A702F
:10CDB000C17C427B914204D086704173074A0621B0
:10CDC0001174C27B417D8A4203D00C2900D1467088
:10CDD000C173FEBDC0250020402C0020802D002006
:10CDE0007CB5002500950195FCF7E6FC1A4E04463B
:10CDF000307E002802D0684600F078F817480069B5
:10CE0000000CC007C00F06D0FEF71EFD317E0029C2
:10CE100002D004F0DBFF7CBD04F0D2FB0E48C03032
:10CE2000407F0028F7D0FEF719FD4007F3D50A48E8
:10CE30007D222038416FD200611A914209D24567A4
:10CE4000FEF782FA0028E6D00021084601F0CCFA6D
:10CE50007CBD44677CBD00006025002000050050BB
:10CE600010B50A20FCF71FF8FEF72EFDFEF790FD27
:10CE70000249487300F04AF810BD00006025002008
:10CE800010B588B0044604A804F0DEF904A80FC861
:10CE900003936B4607C3230001F00DFD0E26131606
:10CEA000262626191C261F0D081022266946042056
:10CEB000085E08B010BD6846407BFAE76846807B94
:10CEC000F7E76846007AF4E76846407AF1E7684693
:10CED000C07AEEE76846807AEBE76846007BE8E7D1
:10CEE00069460620085EE4E70020E2E71CB50288F8
:10CEF00069460A8042884A80808888800199009823
:10CF000001F0D4FF06F0E2FB1CBD000010B50C4C94
:10CF1000FCF752FC0121206021710020E08020817B
:10CF20006081A0812061A07320756075A075E17596
:10CF3000A076E076207661762077607710BD0000DD
:10CF4000642D0020F8B57A4C0026FCF735FC7949B1
:10CF5000496B471A022004F00FFD0125002804D177
:10CF6000032004F009FD00280CD072482030007E18
:10CF7000002807D07048874204D9182161561E291D
:10CF800000DDA57620790027022801D0032804D1EE
:10CF9000E17D02290DD003290BD0012802D1E07DCB
:10CFA000012806D067752079022806D0032804D00E
:10CFB00009E0607D401C6075F5E71522A256142A31
:10CFC00001DBA57506E0012804D1152161560A2967
:10CFD00000DBA7752179E17500F00CFC002802D078
:10CFE0002776657602E0207E401C2076A07D002812
:10CFF00024D0207F4006000E2077617F012902D1D6
:10D00000284320776777207FC306DB0E8446002104
:10D0100008462A4682401A4201D0491CC9B2401C27
:10D02000C0B20528F5D3032900D3A7756046800751
:10D0300004D018216156002900DDA775182161561A
:10D04000052913DD012004F097FC00280DD11821DB
:10D0500061561E290ADD022004F08EFC002804D14E
:10D06000032004F089FC002800D06776012004F03A
:10D0700083FC00280CD0E07E002805D0012801D0D8
:10D08000022803D0032615E0052613E0012611E04F
:10D09000022004F071FC002804D1032004F06CFC91
:10D0A000002807D0E07E00280DD0012801D00228FA
:10D0B0000BD00A26E07E002809D0012801D00228E2
:10D0C00007D05A2006E00C26F4E70826F2E7642091
:10D0D00000E050200E2161561F2901DA491CA1737E
:10D0E0000C22A25E82420ADB032004F045FC0028E9
:10D0F00004D1022004F040FC002800D0A5760C21C9
:10D10000615EB14201DB012000E0002006F062FE1A
:10D11000A7812775216900202A468240114202D149
:10D12000227D521C2275401CC0B21028F4D3F8BDD9
:10D13000642D00204025002040771B00024801217B
:10D140008176417770470000642D002010B50848B3
:10D15000816801290AD107494968490706D5002194
:10D16000816008460AF0A6FB0AF0E8FD10BD000049
:10D17000003100400033004010B50021014809F0A3
:10D180005BFB10BD00400040FEB50020C043124DC7
:10D1900002906869019068462E6908F025FE0746EE
:10D1A00009F09EF80446002F08D002AA01990098C1
:10D1B00008F03AFE029809F0DDF806E0029809F05E
:10D1C000D9F8002801D1002C02D0304607F046FFE4
:10D1D00000206871FEBD0000C42000200449012227
:10D1E0000878504008704968002900D00847704707
:10D1F000AC20002010B508484068002808D08047BF
:10D20000002804D0FF21054A2A3107F0E6F910BDB5
:10D2100008F0A8FF10BD00000C210020BCDB0200BC
:10D220007CB50020009001A807F010FA0F4C6A4668
:10D23000A16A019807F004FAE06B0099461800967D
:10D240007D21A06BC9004843FBF7F4F905460C4665
:10D250003046FBF7EFF9064A064BFBF749F92A4639
:10D260002346FBF72BF8FBF717FA7CBDC0250020FF
:10D27000FCA9F1D24D62404008B50020064B0522C2
:10D280000421009007F010FA002803D003A24721E0
:10D2900007F0A3F908BD0000043300202E2E5C73B4
:10D2A0006F757263655C737973636C6B2E630000DA
:10D2B00010B50248FFF706FC10BD00008F02000009
:10D2C00001480021017070477920002001490020A9
:10D2D000087070477920002010B5034A01211170B1
:10D2E00028DF03F0D1FC10BD7920002010B5034CDD
:10D2F0000223237029DF03F0C7FC10BD7920002032
:10D3000000B50023FCF71EFD00BD0000F0B591B094
:10D31000304F002501266C46360304222146A81909
:10D32000FDF7DEF92078FF2802D04035B542F4D36E
:10D33000B54203D33046FDF7BEFA00254021204612
:10D34000FAF775FF78680090201D01F057F9214920
:10D350002046A0394A7D203002730A7D42738A7DBF
:10D3600082730A7EC273CA7D02743A7B4274CA79A0
:10D370008274194AD27BC274184A138E1B0A037531
:10D38000128E4275154A403A527B8275134A2032FA
:10D39000927CC2758A7B0276002A01D10122027634
:10D3A0000C4A2032937E4376D27E82760C4A127BE0
:10D3B000C2760022027742778A88120A8277097938
:10D3C000C17740222146A819FDF7F0F9012011B0DC
:10D3D000F0BD0000E0250020802D0020C0280020A6
:10D3E000202C002010B5044C0220FBF7F1FEE08A4F
:10D3F00001210843E08210BD9028002010B5FDF700
:10D4000062FAFCF7E7FDFDF75FF902490020886743
:10D4100010BD00004025002010B585B004466846C8
:10D4200000F038F86846007C20706846407C6070E8
:10D430006846807CA0706846C07CE07005B010BD76
:10D4400010B586B00446684600F024F80FA12046C7
:10D4500001F006FA6946C0B2097C2154401C6946B5
:10D46000C0B2497C2154401C6946C0B2897C215419
:10D47000401C6946C0B2C97C2154401CC0B2002186
:10D480002154401CC0B206B010BD00004E42414EB7
:10D49000442000003CB514490A6A0092496A01918F
:10D4A0004821017049214170432181704E21C17092
:10D4B0006A460021535C1B09092B01D9372400E07F
:10D4C0003024E3184C0024182371535C1B071B0FF6
:10D4D000092B01D9372500E03025EB18491C89B20A
:10D4E00063710829E6D33CBD40000010054A01469F
:10D4F000D37B0020002B03D08B4200D1012070474A
:10D50000D173FBE74025002000B587B0FFF7D2FAC2
:10D5100018216846FAF78BFE6846FFF7BBFFFDF758
:10D5200005FFFCF7E5FC002816D0FDF70DFF0028ED
:10D5300024D00020FDF7DAFCFDF7C6F800F076FFF6
:10D5400002F022FA05F034F8FEF7CEFE01F0F4F80E
:10D55000FBF76EFD07B000BDFDF7F6FE002804D016
:10D560000020FDF7B0F9002003E00120FDF7ABF942
:10D570000120FDF7BBFCFCF72DFDDDE70120FDF7E9
:10D58000ADF90120D6E7000010B5084CFBF766FEA8
:10D59000002807D00120FBF71BFEE08A802108430A
:10D5A000E08210BD00F00EF810BD000090280020B1
:10D5B0000349CA7B824201D10020C8737047000032
:10D5C0004025002010B5FDF7BFFE002801D0FFF771
:10D5D0009DFE35DF10BD000010B508F035FE0028B7
:10D5E00005D00E490C484860C8130D4988610D48A4
:10D5F000018CC9B201290ED1818C09070BD1018D93
:10D600000906090F042906D1808D0006000F02D1FA
:10D6100005490120886010BDDFFF07C000050040FC
:10D62000006C0040C00F00F00006004006490548AD
:10D63000896B0160002101728180C180FF21373137
:10D6400001827047502D0020C0250020F0B5CBB0DE
:10D65000334CFCF7B1F80646207A002817D0314D3C
:10D66000012817D0012702281ED003280DD100F071
:10D67000C1F8002809D0A86B2168451A04F096F972
:10D68000002847D0022D00D927724BB0F0BD0320EF
:10D690002072FAE7FDF736FBA86B206002202072AB
:10D6A000E660FDF71DFBF0E7E0680F30B042ECD21A
:10D6B000402008F0C3FF1A4D103DA882042008F056
:10D6C000BDFFE88203202072FDF716FBFF22A7743E
:10D6D0002D3215496846FAF783FDE088A288134980
:10D6E000801A4843002101E0801A491C0028FBDC15
:10D6F0000F4A0020FF256B462C35914207DA1E5C4D
:10D70000401CB700F619921B00B2A842F5DBC830E6
:10D710002082BAE74B20C0008542B5D8B5E70000AB
:10D72000502D0020C025002074DA0200A0860100E0
:10D7300068F00100F8B51B4DFCF73EF807461A49A2
:10D7400028684118B94205D229790020002900D063
:10D750002871687115480069C00AC007C00F20D140
:10D7600000F0ACFB0446FF281BD0A006460F600764
:10D77000400F0090700701D5012100E000212846EC
:10D7800005F09EFF60060CD5F00703D028460099EF
:10D7900006F062F9B00704D53A462846009903F02E
:10D7A00033FAF8BD84280020DC0500000005005095
:10D7B000084800214279002A04D001714171817129
:10D7C000062070478279002A02D08171C0797047A3
:10D7D00000207047842800200148407B70470000EB
:10D7E0008028002010B500F021FB002000F014F884
:10D7F00010BD000010B5FBF7CFFB002801D00020C2
:10D8000010BD0148407B10BD802800200148807A6F
:10D81000704700008028002010B5032803D00020A6
:10D8200000F0F0FB10BD0220FAE7000070B50446DE
:10D830000D461646FBF7C0FFFDF786FD002823D0F6
:10D84000324629462046FEF7BFFD04001CD0FEF7F5
:10D85000B5FD012819D0002816D0E10714D00E4CD0
:10D86000022815D003280FD1606C401C606403F0BF
:10D87000EBFDA16C4018A064FBF79EFFE066FFF78C
:10D880005DFC0120FBF73EFB70BD00F027F870BD8A
:10D89000206C401C2064EAE74025002070B5FDF7AD
:10D8A00053FD002816D00C4C00252078002802D00B
:10D8B00004F032FA2570A078002802D004F0B6F9FE
:10D8C000A5706078002805D003486570A0384566CB
:10D8D000FFF71CFB70BD0000E025002010B5FDF730
:10D8E000C7FF094C01202076FBF766FF214620394F
:10D8F00048630020A07600F0A7FB002802D0032098
:10D90000FFF78AFF10BD00006025002070B50546B6
:10D91000FBF752FF1B490446002D08D1087E002862
:10D920002ED0887E401CC0B28876022828D30020E2
:10D930000876FFF771FFFBF72FFB002807D0FEF7F3
:10D94000F5FA002803D10021042000F04DFDFBF77B
:10D950008FFC002802D00020FBF756FCFDF7C4FF27
:10D96000FEF700FD074D0849203D686B4018A042B6
:10D9700002D20020FEF7B6FD044901206C63487016
:10D9800070BD000060250020E0930400C02D002041
:10D99000F7B501462A48002692B01446002925D042
:10D9A0006846FFF7DDF802AF00254022D001394676
:10D9B0002818FCF795FE3878FF2834D002996A467B
:10D9C000029809049278090EC0B28A4226D16946AB
:10D9D000C978814222D113980126042825D006282F
:10D9E0002CD0072826D0092821D125E01399042915
:10D9F00006D006290FD0072906D0092907D108E04B
:10DA000041688068081801E0006905E0106001269F
:10DA10000DE0806AFAE7C0680009F7E7012000031B
:10DA200040358542C1D3002000E004982060304694
:10DA300015B0F0BD0698F9E70398F7E70598F5E704
:10DA40007C250020F0B5044687B00020FFF7B8F829
:10DA5000694604912249002640180590E6812682F5
:10DA600066826F46012526731022900239463018CF
:10DA7000FCF736FE3878FF2810D0009810364000AA
:10DA8000400800900599884224D90498007B022818
:10DA900006D003280CD0042810D019E0103619E065
:10DAA000E0893C30E081032D0FD0042D0DD00FE034
:10DAB000208A3C302082042D07D004E0608A3C306C
:10DAC0006082032D01D0022D02D1207B401C2073E7
:10DAD0000498057B0120C0038642C5D307B0F0BD82
